{
  "_format": "hh-sol-artifact-1",
  "contractName": "GreenodeMonitor",
  "sourceName": "contracts/GreenodeMonitor.sol",
  "abi": [
    {
      "inputs": [
        {
          "internalType": "address",
          "name": "initialOwner",
          "type": "address"
        }
      ],
      "stateMutability": "nonpayable",
      "type": "constructor"
    },
    {
      "inputs": [
        {
          "internalType": "address",
          "name": "spender",
          "type": "address"
        },
        {
          "internalType": "uint256",
          "name": "allowance",
          "type": "uint256"
        },
        {
          "internalType": "uint256",
          "name": "needed",
          "type": "uint256"
        }
      ],
      "name": "ERC20InsufficientAllowance",
      "type": "error"
    },
    {
      "inputs": [
        {
          "internalType": "address",
          "name": "sender",
          "type": "address"
        },
        {
          "internalType": "uint256",
          "name": "balance",
          "type": "uint256"
        },
        {
          "internalType": "uint256",
          "name": "needed",
          "type": "uint256"
        }
      ],
      "name": "ERC20InsufficientBalance",
      "type": "error"
    },
    {
      "inputs": [
        {
          "internalType": "address",
          "name": "approver",
          "type": "address"
        }
      ],
      "name": "ERC20InvalidApprover",
      "type": "error"
    },
    {
      "inputs": [
        {
          "internalType": "address",
          "name": "receiver",
          "type": "address"
        }
      ],
      "name": "ERC20InvalidReceiver",
      "type": "error"
    },
    {
      "inputs": [
        {
          "internalType": "address",
          "name": "sender",
          "type": "address"
        }
      ],
      "name": "ERC20InvalidSender",
      "type": "error"
    },
    {
      "inputs": [
        {
          "internalType": "address",
          "name": "spender",
          "type": "address"
        }
      ],
      "name": "ERC20InvalidSpender",
      "type": "error"
    },
    {
      "inputs": [
        {
          "internalType": "address",
          "name": "owner",
          "type": "address"
        }
      ],
      "name": "OwnableInvalidOwner",
      "type": "error"
    },
    {
      "inputs": [
        {
          "internalType": "address",
          "name": "account",
          "type": "address"
        }
      ],
      "name": "OwnableUnauthorizedAccount",
      "type": "error"
    },
    {
      "anonymous": false,
      "inputs": [
        {
          "indexed": true,
          "internalType": "address",
          "name": "owner",
          "type": "address"
        },
        {
          "indexed": true,
          "internalType": "address",
          "name": "spender",
          "type": "address"
        },
        {
          "indexed": false,
          "internalType": "uint256",
          "name": "value",
          "type": "uint256"
        }
      ],
      "name": "Approval",
      "type": "event"
    },
    {
      "anonymous": false,
      "inputs": [
        {
          "indexed": true,
          "internalType": "address",
          "name": "contractAddress",
          "type": "address"
        }
      ],
      "name": "ContractAdded",
      "type": "event"
    },
    {
      "anonymous": false,
      "inputs": [
        {
          "indexed": true,
          "internalType": "address",
          "name": "contractAddress",
          "type": "address"
        },
        {
          "indexed": true,
          "internalType": "address",
          "name": "owner",
          "type": "address"
        },
        {
          "indexed": false,
          "internalType": "uint256",
          "name": "gasUsed",
          "type": "uint256"
        },
        {
          "indexed": false,
          "internalType": "string",
          "name": "suggestion",
          "type": "string"
        }
      ],
      "name": "ContractOptimizationAlert",
      "type": "event"
    },
    {
      "anonymous": false,
      "inputs": [
        {
          "indexed": true,
          "internalType": "address",
          "name": "contractAddress",
          "type": "address"
        },
        {
          "indexed": false,
          "internalType": "uint256",
          "name": "gasUsed",
          "type": "uint256"
        },
        {
          "indexed": false,
          "internalType": "uint256",
          "name": "timestamp",
          "type": "uint256"
        }
      ],
      "name": "ContractOptimized",
      "type": "event"
    },
    {
      "anonymous": false,
      "inputs": [
        {
          "indexed": true,
          "internalType": "address",
          "name": "user",
          "type": "address"
        },
        {
          "indexed": false,
          "internalType": "uint256",
          "name": "amount",
          "type": "uint256"
        },
        {
          "indexed": false,
          "internalType": "uint256",
          "name": "gasUsed",
          "type": "uint256"
        }
      ],
      "name": "EnergyEfficiencyReward",
      "type": "event"
    },
    {
      "anonymous": false,
      "inputs": [
        {
          "indexed": true,
          "internalType": "address",
          "name": "contractAddress",
          "type": "address"
        },
        {
          "indexed": false,
          "internalType": "string",
          "name": "suggestion",
          "type": "string"
        },
        {
          "indexed": false,
          "internalType": "uint256",
          "name": "potentialSavings",
          "type": "uint256"
        }
      ],
      "name": "OptimizationSuggested",
      "type": "event"
    },
    {
      "anonymous": false,
      "inputs": [
        {
          "indexed": true,
          "internalType": "address",
          "name": "previousOwner",
          "type": "address"
        },
        {
          "indexed": true,
          "internalType": "address",
          "name": "newOwner",
          "type": "address"
        }
      ],
      "name": "OwnershipTransferred",
      "type": "event"
    },
    {
      "anonymous": false,
      "inputs": [
        {
          "indexed": true,
          "internalType": "address",
          "name": "from",
          "type": "address"
        },
        {
          "indexed": true,
          "internalType": "address",
          "name": "to",
          "type": "address"
        },
        {
          "indexed": false,
          "internalType": "uint256",
          "name": "value",
          "type": "uint256"
        }
      ],
      "name": "Transfer",
      "type": "event"
    },
    {
      "inputs": [],
      "name": "REWARD_AMOUNT",
      "outputs": [
        {
          "internalType": "uint256",
          "name": "",
          "type": "uint256"
        }
      ],
      "stateMutability": "view",
      "type": "function"
    },
    {
      "inputs": [],
      "name": "REWARD_THRESHOLD",
      "outputs": [
        {
          "internalType": "uint256",
          "name": "",
          "type": "uint256"
        }
      ],
      "stateMutability": "view",
      "type": "function"
    },
    {
      "inputs": [
        {
          "internalType": "address",
          "name": "_contract",
          "type": "address"
        }
      ],
      "name": "addContractToMonitor",
      "outputs": [],
      "stateMutability": "nonpayable",
      "type": "function"
    },
    {
      "inputs": [
        {
          "internalType": "address",
          "name": "owner",
          "type": "address"
        },
        {
          "internalType": "address",
          "name": "spender",
          "type": "address"
        }
      ],
      "name": "allowance",
      "outputs": [
        {
          "internalType": "uint256",
          "name": "",
          "type": "uint256"
        }
      ],
      "stateMutability": "view",
      "type": "function"
    },
    {
      "inputs": [
        {
          "internalType": "address",
          "name": "spender",
          "type": "address"
        },
        {
          "internalType": "uint256",
          "name": "value",
          "type": "uint256"
        }
      ],
      "name": "approve",
      "outputs": [
        {
          "internalType": "bool",
          "name": "",
          "type": "bool"
        }
      ],
      "stateMutability": "nonpayable",
      "type": "function"
    },
    {
      "inputs": [
        {
          "internalType": "address",
          "name": "account",
          "type": "address"
        }
      ],
      "name": "balanceOf",
      "outputs": [
        {
          "internalType": "uint256",
          "name": "",
          "type": "uint256"
        }
      ],
      "stateMutability": "view",
      "type": "function"
    },
    {
      "inputs": [
        {
          "internalType": "address",
          "name": "",
          "type": "address"
        }
      ],
      "name": "contractMetrics",
      "outputs": [
        {
          "internalType": "uint256",
          "name": "totalGasUsed",
          "type": "uint256"
        },
        {
          "internalType": "uint256",
          "name": "totalCalls",
          "type": "uint256"
        },
        {
          "internalType": "uint256",
          "name": "lastOptimization",
          "type": "uint256"
        },
        {
          "internalType": "bool",
          "name": "isOptimized",
          "type": "bool"
        },
        {
          "internalType": "string",
          "name": "optimizationSuggestion",
          "type": "string"
        }
      ],
      "stateMutability": "view",
      "type": "function"
    },
    {
      "inputs": [
        {
          "internalType": "address",
          "name": "",
          "type": "address"
        }
      ],
      "name": "contractRegistry",
      "outputs": [
        {
          "internalType": "address",
          "name": "owner",
          "type": "address"
        },
        {
          "internalType": "string",
          "name": "contactInfo",
          "type": "string"
        },
        {
          "internalType": "bool",
          "name": "notificationsEnabled",
          "type": "bool"
        }
      ],
      "stateMutability": "view",
      "type": "function"
    },
    {
      "inputs": [],
      "name": "decimals",
      "outputs": [
        {
          "internalType": "uint8",
          "name": "",
          "type": "uint8"
        }
      ],
      "stateMutability": "view",
      "type": "function"
    },
    {
      "inputs": [],
      "name": "getAllMonitoredContracts",
      "outputs": [
        {
          "internalType": "address[]",
          "name": "",
          "type": "address[]"
        }
      ],
      "stateMutability": "view",
      "type": "function"
    },
    {
      "inputs": [
        {
          "internalType": "address",
          "name": "_contract",
          "type": "address"
        }
      ],
      "name": "getContractMetrics",
      "outputs": [
        {
          "components": [
            {
              "internalType": "uint256",
              "name": "totalGasUsed",
              "type": "uint256"
            },
            {
              "internalType": "uint256",
              "name": "totalCalls",
              "type": "uint256"
            },
            {
              "internalType": "uint256",
              "name": "lastOptimization",
              "type": "uint256"
            },
            {
              "internalType": "bool",
              "name": "isOptimized",
              "type": "bool"
            },
            {
              "internalType": "string",
              "name": "optimizationSuggestion",
              "type": "string"
            }
          ],
          "internalType": "struct GreenodeMonitor.ContractMetrics",
          "name": "",
          "type": "tuple"
        }
      ],
      "stateMutability": "view",
      "type": "function"
    },
    {
      "inputs": [],
      "name": "name",
      "outputs": [
        {
          "internalType": "string",
          "name": "",
          "type": "string"
        }
      ],
      "stateMutability": "view",
      "type": "function"
    },
    {
      "inputs": [
        {
          "internalType": "address",
          "name": "contractAddress",
          "type": "address"
        },
        {
          "internalType": "uint256",
          "name": "gasUsed",
          "type": "uint256"
        },
        {
          "internalType": "string",
          "name": "suggestion",
          "type": "string"
        }
      ],
      "name": "notifyOptimization",
      "outputs": [],
      "stateMutability": "nonpayable",
      "type": "function"
    },
    {
      "inputs": [],
      "name": "owner",
      "outputs": [
        {
          "internalType": "address",
          "name": "",
          "type": "address"
        }
      ],
      "stateMutability": "view",
      "type": "function"
    },
    {
      "inputs": [
        {
          "internalType": "address",
          "name": "contractAddress",
          "type": "address"
        },
        {
          "internalType": "string",
          "name": "contactInfo",
          "type": "string"
        }
      ],
      "name": "registerContract",
      "outputs": [],
      "stateMutability": "nonpayable",
      "type": "function"
    },
    {
      "inputs": [],
      "name": "renounceOwnership",
      "outputs": [],
      "stateMutability": "nonpayable",
      "type": "function"
    },
    {
      "inputs": [
        {
          "internalType": "address",
          "name": "user",
          "type": "address"
        },
        {
          "internalType": "uint256",
          "name": "gasUsed",
          "type": "uint256"
        }
      ],
      "name": "rewardEfficientTransaction",
      "outputs": [],
      "stateMutability": "nonpayable",
      "type": "function"
    },
    {
      "inputs": [
        {
          "internalType": "address",
          "name": "_contract",
          "type": "address"
        },
        {
          "internalType": "string",
          "name": "_suggestion",
          "type": "string"
        },
        {
          "internalType": "uint256",
          "name": "_potentialSavings",
          "type": "uint256"
        }
      ],
      "name": "suggestOptimization",
      "outputs": [],
      "stateMutability": "nonpayable",
      "type": "function"
    },
    {
      "inputs": [],
      "name": "symbol",
      "outputs": [
        {
          "internalType": "string",
          "name": "",
          "type": "string"
        }
      ],
      "stateMutability": "view",
      "type": "function"
    },
    {
      "inputs": [
        {
          "internalType": "address",
          "name": "contractAddress",
          "type": "address"
        }
      ],
      "name": "toggleNotifications",
      "outputs": [],
      "stateMutability": "nonpayable",
      "type": "function"
    },
    {
      "inputs": [],
      "name": "totalSupply",
      "outputs": [
        {
          "internalType": "uint256",
          "name": "",
          "type": "uint256"
        }
      ],
      "stateMutability": "view",
      "type": "function"
    },
    {
      "inputs": [
        {
          "internalType": "address",
          "name": "to",
          "type": "address"
        },
        {
          "internalType": "uint256",
          "name": "value",
          "type": "uint256"
        }
      ],
      "name": "transfer",
      "outputs": [
        {
          "internalType": "bool",
          "name": "",
          "type": "bool"
        }
      ],
      "stateMutability": "nonpayable",
      "type": "function"
    },
    {
      "inputs": [
        {
          "internalType": "address",
          "name": "from",
          "type": "address"
        },
        {
          "internalType": "address",
          "name": "to",
          "type": "address"
        },
        {
          "internalType": "uint256",
          "name": "value",
          "type": "uint256"
        }
      ],
      "name": "transferFrom",
      "outputs": [
        {
          "internalType": "bool",
          "name": "",
          "type": "bool"
        }
      ],
      "stateMutability": "nonpayable",
      "type": "function"
    },
    {
      "inputs": [
        {
          "internalType": "address",
          "name": "newOwner",
          "type": "address"
        }
      ],
      "name": "transferOwnership",
      "outputs": [],
      "stateMutability": "nonpayable",
      "type": "function"
    },
    {
      "inputs": [
        {
          "internalType": "address",
          "name": "_contract",
          "type": "address"
        },
        {
          "internalType": "uint256",
          "name": "_gasUsed",
          "type": "uint256"
        }
      ],
      "name": "updateMetrics",
      "outputs": [],
      "stateMutability": "nonpayable",
      "type": "function"
    }
  ],
  "bytecode": "0x60806040523480156200001157600080fd5b5060405162001ccc38038062001ccc8339810160408190526200003491620002b4565b8060405180604001604052806009815260200168477265656e4e6f646560b81b8152506040518060400160405280600581526020016423a922a2a760d91b81525081600390816200008691906200038d565b5060046200009582826200038d565b5050506001600160a01b038116620000c857604051631e4fbdf760e01b8152600060048201526024015b60405180910390fd5b620000d381620000f1565b50620000ea8169d3c21bcecceda100000062000143565b5062000481565b600580546001600160a01b038381166001600160a01b0319831681179093556040519116919082907f8be0079c531659141344cd1fd0a4f28419497f9722a3daafe3b4186f6b6457e090600090a35050565b6001600160a01b0382166200016f5760405163ec442f0560e01b815260006004820152602401620000bf565b6200017d6000838362000181565b5050565b6001600160a01b038316620001b0578060026000828254620001a4919062000459565b90915550620002249050565b6001600160a01b03831660009081526020819052604090205481811015620002055760405163391434e360e21b81526001600160a01b03851660048201526024810182905260448101839052606401620000bf565b6001600160a01b03841660009081526020819052604090209082900390555b6001600160a01b038216620002425760028054829003905562000261565b6001600160a01b03821660009081526020819052604090208054820190555b816001600160a01b0316836001600160a01b03167fddf252ad1be2c89b69c2b068fc378daa952ba7f163c4a11628f55a4df523b3ef83604051620002a791815260200190565b60405180910390a3505050565b600060208284031215620002c757600080fd5b81516001600160a01b0381168114620002df57600080fd5b9392505050565b634e487b7160e01b600052604160045260246000fd5b600181811c908216806200031157607f821691505b6020821081036200033257634e487b7160e01b600052602260045260246000fd5b50919050565b601f82111562000388576000816000526020600020601f850160051c81016020861015620003635750805b601f850160051c820191505b8181101562000384578281556001016200036f565b5050505b505050565b81516001600160401b03811115620003a957620003a9620002e6565b620003c181620003ba8454620002fc565b8462000338565b602080601f831160018114620003f95760008415620003e05750858301515b600019600386901b1c1916600185901b17855562000384565b600085815260208120601f198616915b828110156200042a5788860151825594840194600190910190840162000409565b5085821015620004495787850151600019600388901b60f8161c191681555b5050505050600190811b01905550565b808201808211156200047b57634e487b7160e01b600052601160045260246000fd5b92915050565b61183b80620004916000396000f3fe608060405234801561001057600080fd5b50600436106101735760003560e01c806382e1a34c116100de578063cf84944211610097578063e1fe1a1d11610071578063e1fe1a1d14610359578063e7bdba321461037d578063ed111b0614610386578063f2fde38b146103a857600080fd5b8063cf849442146102fd578063da23c0d91461030d578063dd62ed3e1461032057600080fd5b806382e1a34c1461027f57806383e70544146102925780638da5cb5b146102b257806395d89b41146102cd578063a9059cbb146102d5578063c18800d5146102e857600080fd5b8063446768041161013057806344676804146102025780635508d77d1461021557806367bb582d1461022857806367eddf501461023b57806370a082311461024e578063715018a61461027757600080fd5b806306fdde0314610178578063095ea7b31461019657806318160ddd146101b95780631ba7f0eb146101cb57806323b872dd146101e0578063313ce567146101f3575b600080fd5b6101806103bb565b60405161018d9190611185565b60405180910390f35b6101a96101a43660046111b4565b61044d565b604051901515815260200161018d565b6002545b60405190815260200161018d565b6101de6101d93660046111de565b610467565b005b6101a96101ee3660046111f9565b61050d565b6040516012815260200161018d565b6101de6102103660046111b4565b610531565b6101de6102233660046112d8565b6105b0565b6101de6102363660046111de565b6106f4565b6101de6102493660046111b4565b610775565b6101bd61025c3660046111de565b6001600160a01b031660009081526020819052604090205490565b6101de6107ec565b6101de61028d36600461132f565b610800565b6102a56102a03660046111de565b6108a3565b60405161018d91906113b8565b6005546040516001600160a01b03909116815260200161018d565b6101806109ee565b6101a96102e33660046111b4565b6109fd565b6102f0610a0b565b60405161018d9190611405565b6101bd68056bc75e2d6310000081565b6101de61031b366004611452565b610ab1565b6101bd61032e3660046114a0565b6001600160a01b03918216600090815260016020908152604080832093909416825291909152205490565b61036c6103673660046111de565b610b2f565b60405161018d9594939291906114d3565b6101bd61c35081565b6103996103943660046111de565b610bec565b60405161018d9392919061150b565b6101de6103b63660046111de565b610ca4565b6060600380546103ca90611541565b80601f01602080910402602001604051908101604052809291908181526020018280546103f690611541565b80156104435780601f1061041857610100808354040283529160200191610443565b820191906000526020600020905b81548152906001019060200180831161042657829003601f168201915b5050505050905090565b60003361045b818585610ce2565b60019150505b92915050565b61046f610cf4565b6001600160a01b0381166104ca5760405162461bcd60e51b815260206004820152601860248201527f496e76616c696420636f6e74726163742061646472657373000000000000000060448201526064015b60405180910390fd5b6104d5600682610d21565b506040516001600160a01b038216907f89c66952b48f3e96bf1d8ba1b63189520fd988a6979b8b740bd5c5d8dc53e20590600090a250565b60003361051b858285610d3d565b610526858585610db6565b506001949350505050565b610539610cf4565b610544600683610e15565b6105605760405162461bcd60e51b81526004016104c19061157b565b6001600160a01b038216600090815260086020526040812080549091839183919061058c9084906115ab565b9091555050600181810180546000906105a69084906115ab565b9091555050505050565b6105b8610cf4565b6001600160a01b038084166000908152600960209081526040808320815160608101909252805490941681526001840180549394919391928401916105fc90611541565b80601f016020809104026020016040519081016040528092919081815260200182805461062890611541565b80156106755780601f1061064a57610100808354040283529160200191610675565b820191906000526020600020905b81548152906001019060200180831161065857829003601f168201915b50505091835250506002919091015460ff1615156020909101526040810151909150156106ee5780600001516001600160a01b0316846001600160a01b03167f9327733b466aab99ff216b5e2b3387a5b3aa05243492caf84cf96e344869922785856040516106e59291906115cc565b60405180910390a35b50505050565b6001600160a01b038181166000908152600960205260409020541633146107495760405162461bcd60e51b81526020600482015260096024820152682737ba1037bbb732b960b91b60448201526064016104c1565b6001600160a01b03166000908152600960205260409020600201805460ff19811660ff90911615179055565b61077d610cf4565b61c3508110156107e85761079a8268056bc75e2d63100000610e37565b6040805168056bc75e2d631000008152602081018390526001600160a01b038416917f36a06283e427f3b553e7cc78e509363a900db392124fb1e5260abdb22c164b33910160405180910390a25b5050565b6107f4610cf4565b6107fe6000610e6d565b565b610808610cf4565b610813600685610e15565b61082f5760405162461bcd60e51b81526004016104c19061157b565b6001600160a01b038416600090815260086020526040902060048101610856848683611635565b50846001600160a01b03167f26d51693184f32eb6217f1e84b4466e41c0fbeeba52fc75b6deb0c1a066aee02858585604051610894939291906116f6565b60405180910390a25050505050565b6108d76040518060a00160405280600081526020016000815260200160008152602001600015158152602001606081525090565b6108e2600683610e15565b6108fe5760405162461bcd60e51b81526004016104c19061157b565b6001600160a01b038216600090815260086020908152604091829020825160a08101845281548152600182015492810192909252600281015492820192909252600382015460ff161515606082015260048201805491929160808401919061096590611541565b80601f016020809104026020016040519081016040528092919081815260200182805461099190611541565b80156109de5780601f106109b3576101008083540402835291602001916109de565b820191906000526020600020905b8154815290600101906020018083116109c157829003601f168201915b5050505050815250509050919050565b6060600480546103ca90611541565b60003361045b818585610db6565b60606000610a196006610ebf565b905060008167ffffffffffffffff811115610a3657610a36611235565b604051908082528060200260200182016040528015610a5f578160200160208202803683370190505b50905060005b82811015610aaa57610a78600682610ec9565b828281518110610a8a57610a8a61172f565b6001600160a01b0390921660209283029190910190910152600101610a65565b5092915050565b60408051606081018252338152602080820184815260018385018190526001600160a01b038781166000908152600990945294909220835181546001600160a01b03191695169490941784555191929190820190610b0f9082611745565b50604091909101516002909101805460ff19169115159190911790555050565b6008602052600090815260409020805460018201546002830154600384015460048501805494959394929360ff90921692610b6990611541565b80601f0160208091040260200160405190810160405280929190818152602001828054610b9590611541565b8015610be25780601f10610bb757610100808354040283529160200191610be2565b820191906000526020600020905b815481529060010190602001808311610bc557829003601f168201915b5050505050905085565b600960205260009081526040902080546001820180546001600160a01b039092169291610c1890611541565b80601f0160208091040260200160405190810160405280929190818152602001828054610c4490611541565b8015610c915780601f10610c6657610100808354040283529160200191610c91565b820191906000526020600020905b815481529060010190602001808311610c7457829003601f168201915b5050506002909301549192505060ff1683565b610cac610cf4565b6001600160a01b038116610cd657604051631e4fbdf760e01b8152600060048201526024016104c1565b610cdf81610e6d565b50565b610cef8383836001610ed5565b505050565b6005546001600160a01b031633146107fe5760405163118cdaa760e01b81523360048201526024016104c1565b6000610d36836001600160a01b038416610f9c565b9392505050565b6001600160a01b038381166000908152600160209081526040808320938616835292905220546000198110156106ee5781811015610da757604051637dc7a0d960e11b81526001600160a01b038416600482015260248101829052604481018390526064016104c1565b6106ee84848484036000610ed5565b6001600160a01b038316610de057604051634b637e8f60e11b8152600060048201526024016104c1565b6001600160a01b038216610e0a5760405163ec442f0560e01b8152600060048201526024016104c1565b610cef838383610feb565b6001600160a01b03811660009081526001830160205260408120541515610d36565b6001600160a01b038216610e615760405163ec442f0560e01b8152600060048201526024016104c1565b6107e860008383610feb565b600580546001600160a01b038381166001600160a01b0319831681179093556040519116919082907f8be0079c531659141344cd1fd0a4f28419497f9722a3daafe3b4186f6b6457e090600090a35050565b6000610461825490565b6000610d368383611115565b6001600160a01b038416610eff5760405163e602df0560e01b8152600060048201526024016104c1565b6001600160a01b038316610f2957604051634a1406b160e11b8152600060048201526024016104c1565b6001600160a01b03808516600090815260016020908152604080832093871683529290522082905580156106ee57826001600160a01b0316846001600160a01b03167f8c5be1e5ebec7d5bd14f71427d1e84f3dd0314c0f7b2291e5b200ac8c7c3b925846040516106e591815260200190565b6000818152600183016020526040812054610fe357508154600181810184556000848152602080822090930184905584548482528286019093526040902091909155610461565b506000610461565b6001600160a01b03831661101657806002600082825461100b91906115ab565b909155506110889050565b6001600160a01b038316600090815260208190526040902054818110156110695760405163391434e360e21b81526001600160a01b038516600482015260248101829052604481018390526064016104c1565b6001600160a01b03841660009081526020819052604090209082900390555b6001600160a01b0382166110a4576002805482900390556110c3565b6001600160a01b03821660009081526020819052604090208054820190555b816001600160a01b0316836001600160a01b03167fddf252ad1be2c89b69c2b068fc378daa952ba7f163c4a11628f55a4df523b3ef8360405161110891815260200190565b60405180910390a3505050565b600082600001828154811061112c5761112c61172f565b9060005260206000200154905092915050565b6000815180845260005b8181101561116557602081850181015186830182015201611149565b506000602082860101526020601f19601f83011685010191505092915050565b602081526000610d36602083018461113f565b80356001600160a01b03811681146111af57600080fd5b919050565b600080604083850312156111c757600080fd5b6111d083611198565b946020939093013593505050565b6000602082840312156111f057600080fd5b610d3682611198565b60008060006060848603121561120e57600080fd5b61121784611198565b925061122560208501611198565b9150604084013590509250925092565b634e487b7160e01b600052604160045260246000fd5b600082601f83011261125c57600080fd5b813567ffffffffffffffff8082111561127757611277611235565b604051601f8301601f19908116603f0116810190828211818310171561129f5761129f611235565b816040528381528660208588010111156112b857600080fd5b836020870160208301376000602085830101528094505050505092915050565b6000806000606084860312156112ed57600080fd5b6112f684611198565b925060208401359150604084013567ffffffffffffffff81111561131957600080fd5b6113258682870161124b565b9150509250925092565b6000806000806060858703121561134557600080fd5b61134e85611198565b9350602085013567ffffffffffffffff8082111561136b57600080fd5b818701915087601f83011261137f57600080fd5b81358181111561138e57600080fd5b8860208285010111156113a057600080fd5b95986020929092019750949560400135945092505050565b602081528151602082015260208201516040820152604082015160608201526060820151151560808201526000608083015160a0808401526113fd60c084018261113f565b949350505050565b6020808252825182820181905260009190848201906040850190845b818110156114465783516001600160a01b031683529284019291840191600101611421565b50909695505050505050565b6000806040838503121561146557600080fd5b61146e83611198565b9150602083013567ffffffffffffffff81111561148a57600080fd5b6114968582860161124b565b9150509250929050565b600080604083850312156114b357600080fd5b6114bc83611198565b91506114ca60208401611198565b90509250929050565b858152846020820152836040820152821515606082015260a06080820152600061150060a083018461113f565b979650505050505050565b6001600160a01b038416815260606020820181905260009061152f9083018561113f565b90508215156040830152949350505050565b600181811c9082168061155557607f821691505b60208210810361157557634e487b7160e01b600052602260045260246000fd5b50919050565b60208082526016908201527510dbdb9d1c9858dd081b9bdd081b5bdb9a5d1bdc995960521b604082015260600190565b8082018082111561046157634e487b7160e01b600052601160045260246000fd5b8281526040602082015260006113fd604083018461113f565b601f821115610cef576000816000526020600020601f850160051c8101602086101561160e5750805b601f850160051c820191505b8181101561162d5782815560010161161a565b505050505050565b67ffffffffffffffff83111561164d5761164d611235565b6116618361165b8354611541565b836115e5565b6000601f841160018114611695576000851561167d5750838201355b600019600387901b1c1916600186901b1783556116ef565b600083815260209020601f19861690835b828110156116c657868501358255602094850194600190920191016116a6565b50868210156116e35760001960f88860031b161c19848701351681555b505060018560011b0183555b5050505050565b604081528260408201528284606083013760006060848301015260006060601f19601f8601168301019050826020830152949350505050565b634e487b7160e01b600052603260045260246000fd5b815167ffffffffffffffff81111561175f5761175f611235565b6117738161176d8454611541565b846115e5565b602080601f8311600181146117a857600084156117905750858301515b600019600386901b1c1916600185901b17855561162d565b600085815260208120601f198616915b828110156117d7578886015182559484019460019091019084016117b8565b50858210156117f55787850151600019600388901b60f8161c191681555b5050505050600190811b0190555056fea264697066735822122072f253b39b84022c2c72b0edea82df054dc21ff0b7dbf25d92bf95b101486db564736f6c63430008180033",
  "linkReferences": {},
  "deployedLinkReferences": {}
}